{"abi":[{"type":"constructor","inputs":[],"stateMutability":"payable"},{"type":"fallback","stateMutability":"payable"},{"type":"receive","stateMutability":"payable"},{"type":"function","name":"balances","inputs":[{"name":"","type":"address","internalType":"address"}],"outputs":[{"name":"","type":"uint256","internalType":"uint256"}],"stateMutability":"view"},{"type":"function","name":"callInternalFunction","inputs":[],"outputs":[{"name":"","type":"string","internalType":"string"}],"stateMutability":"pure"},{"type":"function","name":"callPrivateFunction","inputs":[],"outputs":[{"name":"","type":"string","internalType":"string"}],"stateMutability":"pure"},{"type":"function","name":"deposit","inputs":[],"outputs":[],"stateMutability":"payable"},{"type":"function","name":"depositFor","inputs":[{"name":"_recipient","type":"address","internalType":"address"}],"outputs":[],"stateMutability":"payable"},{"type":"function","name":"externalFunction","inputs":[],"outputs":[{"name":"","type":"string","internalType":"string"}],"stateMutability":"pure"},{"type":"function","name":"getBalance","inputs":[{"name":"_address","type":"address","internalType":"address"}],"outputs":[{"name":"","type":"uint256","internalType":"uint256"}],"stateMutability":"view"},{"type":"function","name":"getContractBalance","inputs":[],"outputs":[{"name":"","type":"uint256","internalType":"uint256"}],"stateMutability":"view"},{"type":"function","name":"owner","inputs":[],"outputs":[{"name":"","type":"address","internalType":"address"}],"stateMutability":"view"},{"type":"function","name":"ownerWithdraw","inputs":[{"name":"_amount","type":"uint256","internalType":"uint256"}],"outputs":[],"stateMutability":"nonpayable"},{"type":"function","name":"publicFunction","inputs":[],"outputs":[{"name":"","type":"string","internalType":"string"}],"stateMutability":"pure"},{"type":"function","name":"withdraw","inputs":[{"name":"_amount","type":"uint256","internalType":"uint256"}],"outputs":[],"stateMutability":"nonpayable"},{"type":"function","name":"withdrawAll","inputs":[],"outputs":[],"stateMutability":"nonpayable"},{"type":"event","name":"Deposited","inputs":[{"name":"sender","type":"address","indexed":true,"internalType":"address"},{"name":"amount","type":"uint256","indexed":false,"internalType":"uint256"}],"anonymous":false},{"type":"event","name":"FallbackCalled","inputs":[{"name":"sender","type":"address","indexed":true,"internalType":"address"},{"name":"amount","type":"uint256","indexed":false,"internalType":"uint256"},{"name":"data","type":"bytes","indexed":false,"internalType":"bytes"}],"anonymous":false},{"type":"event","name":"Received","inputs":[{"name":"sender","type":"address","indexed":true,"internalType":"address"},{"name":"amount","type":"uint256","indexed":false,"internalType":"uint256"}],"anonymous":false},{"type":"event","name":"Withdrawn","inputs":[{"name":"recipient","type":"address","indexed":true,"internalType":"address"},{"name":"amount","type":"uint256","indexed":false,"internalType":"uint256"}],"anonymous":false}],"bytecode":{"object":"0x60806040525f80546001600160a01b0319163317905534156100515760405134815233907f2da466a7b24304f47e87fa2e1e5a81b9831ce54fec19055ce277ca2f39ba42c49060200160405180910390a25b6109a58061005e5f395ff3fe6080604052600436106100c5575f3560e01c8063853828b61161007e578063974e84a411610058578063974e84a4146102a4578063aa67c919146102b8578063d0e30db0146102cb578063f8b2cb4f146102d357610102565b8063853828b6146102465780638701f8ca1461025a5780638da5cb5b1461026e57610102565b806327e235e31461013f5780632e1a7d4d1461017d57806333f707d11461019e5780633a32b549146101bd5780636f9fb98a146101fe5780637b5d520b1461021057610102565b366101025760405134815233907f88a5966d370b9919b20f3e2c13ff65706f196a4e32cc2c12bf57088f88525874906020015b60405180910390a2005b336001600160a01b03167faca09dd456ca888dccf8cc966e382e6e3042bb7e4d2d7815015f844edeafce42345f366040516100f893929190610834565b34801561014a575f80fd5b5061016a610159366004610869565b60016020525f908152604090205481565b6040519081526020015b60405180910390f35b348015610188575f80fd5b5061019c610197366004610896565b610307565b005b3480156101a9575f80fd5b5061019c6101b8366004610896565b61046f565b3480156101c8575f80fd5b5060408051808201909152601081526f151a1a5cc81a5cc8195e1d195c9b985b60821b60208201525b60405161017491906108ad565b348015610209575f80fd5b504761016a565b34801561021b575f80fd5b5060408051808201909152600e81526d54686973206973207075626c696360901b60208201526101f1565b348015610251575f80fd5b5061019c6105f6565b348015610265575f80fd5b506101f1610668565b348015610279575f80fd5b505f5461028c906001600160a01b031681565b6040516001600160a01b039091168152602001610174565b3480156102af575f80fd5b506101f161069c565b61019c6102c6366004610869565b6106ca565b61019c6107bb565b3480156102de575f80fd5b5061016a6102ed366004610869565b6001600160a01b03165f9081526001602052604090205490565b5f811161032f5760405162461bcd60e51b8152600401610326906108f8565b60405180910390fd5b335f908152600160205260409020548111156103845760405162461bcd60e51b8152602060048201526014602482015273496e73756666696369656e742062616c616e636560601b6044820152606401610326565b335f90815260016020526040812080548392906103a2908490610943565b90915550506040515f90339083905b5f6040518083038185875af1925050503d805f81146103eb576040519150601f19603f3d011682016040523d82523d5f602084013e6103f0565b606091505b50509050806104355760405162461bcd60e51b815260206004820152601160248201527015da5d1a191c985dd85b0819985a5b1959607a1b6044820152606401610326565b60405182815233907f7084f5476618d8e60b11ef0d7d3f06914655adb8793e28ff7f018d4c76d505d5906020015b60405180910390a25050565b5f546001600160a01b031633146104b55760405162461bcd60e51b815260206004820152600a60248201526927b7363c9037bbb732b960b11b6044820152606401610326565b5f81116104d45760405162461bcd60e51b8152600401610326906108f8565b804710156105245760405162461bcd60e51b815260206004820152601d60248201527f496e73756666696369656e7420636f6e74726163742062616c616e63650000006044820152606401610326565b5f80546040516001600160a01b039091169083908381818185875af1925050503d805f811461056e576040519150601f19603f3d011682016040523d82523d5f602084013e610573565b606091505b50509050806105b85760405162461bcd60e51b815260206004820152601160248201527015da5d1a191c985dd85b0819985a5b1959607a1b6044820152606401610326565b5f546040518381526001600160a01b03909116907f7084f5476618d8e60b11ef0d7d3f06914655adb8793e28ff7f018d4c76d505d590602001610463565b335f908152600160205260409020548061064b5760405162461bcd60e51b81526020600482015260166024820152754e6f2062616c616e636520746f20776974686472617760501b6044820152606401610326565b335f818152600160205260408082208290555190919083906103b1565b606061069760408051808201909152601081526f151a1a5cc81a5cc81a5b9d195c9b985b60821b602082015290565b905090565b606061069760408051808201909152600f81526e54686973206973207072697661746560881b602082015290565b5f34116106e95760405162461bcd60e51b8152600401610326906108f8565b6001600160a01b03811661074e5760405162461bcd60e51b815260206004820152602660248201527f526563697069656e74206d757374206e6f7420626520746865207a65726f206160448201526564647265737360d01b6064820152608401610326565b6001600160a01b0381165f908152600160205260408120805434929061077590849061095c565b90915550506040513481526001600160a01b038216907f2da466a7b24304f47e87fa2e1e5a81b9831ce54fec19055ce277ca2f39ba42c49060200160405180910390a250565b5f34116107da5760405162461bcd60e51b8152600401610326906108f8565b335f90815260016020526040812080543492906107f890849061095c565b909155505060405134815233907f2da466a7b24304f47e87fa2e1e5a81b9831ce54fec19055ce277ca2f39ba42c49060200160405180910390a2565b83815260406020820152816040820152818360608301375f818301606090810191909152601f909201601f1916010192915050565b5f60208284031215610879575f80fd5b81356001600160a01b038116811461088f575f80fd5b9392505050565b5f602082840312156108a6575f80fd5b5035919050565b5f6020808352835180828501525f5b818110156108d8578581018301518582016040015282016108bc565b505f604082860101526040601f19601f8301168501019250505092915050565b6020808252601d908201527f416d6f756e74206d7573742062652067726561746572207468616e2030000000604082015260600190565b634e487b7160e01b5f52601160045260245ffd5b818103818111156109565761095661092f565b92915050565b808201808211156109565761095661092f56fea2646970667358221220bb3cfe32b6da76719d1ea095cf3b55998e891d8cd150caa20bd03f3014e6443364736f6c63430008140033","linkReferences":{}},"methodIdentifiers":{"balances(address)":"27e235e3","callInternalFunction()":"8701f8ca","callPrivateFunction()":"974e84a4","deposit()":"d0e30db0","depositFor(address)":"aa67c919","externalFunction()":"3a32b549","getBalance(address)":"f8b2cb4f","getContractBalance()":"6f9fb98a","owner()":"8da5cb5b","ownerWithdraw(uint256)":"33f707d1","publicFunction()":"7b5d520b","withdraw(uint256)":"2e1a7d4d","withdrawAll()":"853828b6"},"id":40}