{"abi":[{"type":"constructor","inputs":[],"stateMutability":"nonpayable"},{"type":"function","name":"addNumber","inputs":[{"name":"_number","type":"uint256","internalType":"uint256"}],"outputs":[],"stateMutability":"nonpayable"},{"type":"function","name":"balances","inputs":[{"name":"","type":"address","internalType":"address"}],"outputs":[{"name":"","type":"uint256","internalType":"uint256"}],"stateMutability":"view"},{"type":"function","name":"data","inputs":[],"outputs":[{"name":"","type":"bytes32","internalType":"bytes32"}],"stateMutability":"view"},{"type":"function","name":"deposit","inputs":[],"outputs":[],"stateMutability":"payable"},{"type":"function","name":"getBalance","inputs":[{"name":"_address","type":"address","internalType":"address"}],"outputs":[{"name":"","type":"uint256","internalType":"uint256"}],"stateMutability":"view"},{"type":"function","name":"getFirstElement","inputs":[{"name":"_arr","type":"uint256[]","internalType":"uint256[]"}],"outputs":[{"name":"","type":"uint256","internalType":"uint256"}],"stateMutability":"pure"},{"type":"function","name":"getNumber","inputs":[],"outputs":[{"name":"","type":"uint256","internalType":"uint256"}],"stateMutability":"view"},{"type":"function","name":"getNumberAt","inputs":[{"name":"_index","type":"uint256","internalType":"uint256"}],"outputs":[{"name":"","type":"uint256","internalType":"uint256"}],"stateMutability":"view"},{"type":"function","name":"getNumbersLength","inputs":[],"outputs":[{"name":"","type":"uint256","internalType":"uint256"}],"stateMutability":"view"},{"type":"function","name":"getPackedDataExample","inputs":[],"outputs":[{"name":"","type":"uint128","internalType":"uint128"},{"name":"","type":"uint128","internalType":"uint128"},{"name":"","type":"uint64","internalType":"uint64"},{"name":"","type":"address","internalType":"address"},{"name":"","type":"bool","internalType":"bool"}],"stateMutability":"view"},{"type":"function","name":"getUser","inputs":[{"name":"_wallet","type":"address","internalType":"address"}],"outputs":[{"name":"wallet","type":"address","internalType":"address"},{"name":"balance","type":"uint256","internalType":"uint256"},{"name":"isRegistered","type":"bool","internalType":"bool"}],"stateMutability":"view"},{"type":"function","name":"hasBalance","inputs":[{"name":"_address","type":"address","internalType":"address"}],"outputs":[{"name":"","type":"bool","internalType":"bool"}],"stateMutability":"view"},{"type":"function","name":"incrementNumber","inputs":[],"outputs":[],"stateMutability":"nonpayable"},{"type":"function","name":"isActive","inputs":[],"outputs":[{"name":"","type":"bool","internalType":"bool"}],"stateMutability":"view"},{"type":"function","name":"message","inputs":[],"outputs":[{"name":"","type":"string","internalType":"string"}],"stateMutability":"view"},{"type":"function","name":"number","inputs":[],"outputs":[{"name":"","type":"uint256","internalType":"uint256"}],"stateMutability":"view"},{"type":"function","name":"numbers","inputs":[{"name":"","type":"uint256","internalType":"uint256"}],"outputs":[{"name":"","type":"uint256","internalType":"uint256"}],"stateMutability":"view"},{"type":"function","name":"owner","inputs":[],"outputs":[{"name":"","type":"address","internalType":"address"}],"stateMutability":"view"},{"type":"function","name":"registerUser","inputs":[{"name":"_wallet","type":"address","internalType":"address"},{"name":"_balance","type":"uint256","internalType":"uint256"}],"outputs":[],"stateMutability":"nonpayable"},{"type":"function","name":"removeNumber","inputs":[{"name":"_index","type":"uint256","internalType":"uint256"}],"outputs":[],"stateMutability":"nonpayable"},{"type":"function","name":"setBalance","inputs":[{"name":"_address","type":"address","internalType":"address"},{"name":"_balance","type":"uint256","internalType":"uint256"}],"outputs":[],"stateMutability":"nonpayable"},{"type":"function","name":"setMessage","inputs":[{"name":"_message","type":"string","internalType":"string"}],"outputs":[],"stateMutability":"nonpayable"},{"type":"function","name":"setNumber","inputs":[{"name":"_number","type":"uint256","internalType":"uint256"}],"outputs":[],"stateMutability":"nonpayable"},{"type":"function","name":"sumMemoryArray","inputs":[{"name":"_arr","type":"uint256[]","internalType":"uint256[]"}],"outputs":[{"name":"","type":"uint256","internalType":"uint256"}],"stateMutability":"pure"},{"type":"function","name":"users","inputs":[{"name":"","type":"address","internalType":"address"}],"outputs":[{"name":"wallet","type":"address","internalType":"address"},{"name":"balance","type":"uint256","internalType":"uint256"},{"name":"isRegistered","type":"bool","internalType":"bool"}],"stateMutability":"view"},{"type":"event","name":"BalanceUpdated","inputs":[{"name":"addr","type":"address","indexed":false,"internalType":"address"},{"name":"balance","type":"uint256","indexed":false,"internalType":"uint256"}],"anonymous":false},{"type":"event","name":"FundsDeposited","inputs":[{"name":"depositor","type":"address","indexed":true,"internalType":"address"},{"name":"amount","type":"uint256","indexed":false,"internalType":"uint256"}],"anonymous":false},{"type":"event","name":"MessageUpdated","inputs":[{"name":"oldMessage","type":"string","indexed":false,"internalType":"string"},{"name":"newMessage","type":"string","indexed":false,"internalType":"string"}],"anonymous":false},{"type":"event","name":"NumberUpdated","inputs":[{"name":"oldValue","type":"uint256","indexed":true,"internalType":"uint256"},{"name":"newValue","type":"uint256","indexed":true,"internalType":"uint256"}],"anonymous":false},{"type":"event","name":"UserRegistered","inputs":[{"name":"wallet","type":"address","indexed":true,"internalType":"address"},{"name":"balance","type":"uint256","indexed":false,"internalType":"uint256"}],"anonymous":false}],"bytecode":{"object":"0x608060405234801561000f575f80fd5b506001805460ff60a01b1933166001600160a81b031990911617600160a01b179055610fe78061003e5f395ff3fe608060405260043610610161575f3560e01c80638da5cb5b116100cd578063e30443bc11610087578063f3d4e56211610062578063f3d4e56214610510578063f8b2cb4f14610524578063fa0b5e5514610558578063fce6802314610577575f80fd5b8063e30443bc146104bf578063eea54fb6146104de578063f2c9ecd8146104fd575f80fd5b80638da5cb5b146103da578063a87430ba14610411578063d0e30db014610458578063d39fa23314610460578063e16633a41461047f578063e21f37ce1461049e575f80fd5b806346b71fff1161011e57806346b71fff1461025d5780634be581311461027c5780636f77926b1461030157806373d4a13a146103925780638381f58a146103a75780638af79949146103bb575f80fd5b806322b2678a1461016557806322f3e2d4146101b0578063273ea3e3146101d057806327e235e3146101e6578063368b87721461021f5780633fb5c1cb1461023e575b5f80fd5b348015610170575f80fd5b5061019b61017f366004610b30565b6001600160a01b03165f90815260046020526040902054151590565b60405190151581526020015b60405180910390f35b3480156101bb575f80fd5b5060015461019b90600160a01b900460ff1681565b3480156101db575f80fd5b506101e46105c5565b005b3480156101f1575f80fd5b50610211610200366004610b30565b60046020525f908152604090205481565b6040519081526020016101a7565b34801561022a575f80fd5b506101e4610239366004610b95565b6105dd565b348015610249575f80fd5b506101e4610258366004610c24565b6106b6565b348015610268575f80fd5b50610211610277366004610c3b565b6106ec565b348015610287575f80fd5b506040805160a08082018352606480835260c860208085018290527312345678901234567890123456789012345678908587018190524267ffffffffffffffff16606080880182905260016080988901819052895196875293860194909452968401969096529082019490945291820192909252016101a7565b34801561030c575f80fd5b5061036b61031b366004610b30565b6001600160a01b038082165f9081526006602090815260409182902082516060810184528154909416808552600182015492850183905260029091015460ff161515939092018390529093909250565b604080516001600160a01b03909416845260208401929092521515908201526060016101a7565b34801561039d575f80fd5b5061021160025481565b3480156103b2575f80fd5b506102115f5481565b3480156103c6575f80fd5b506102116103d5366004610c24565b610752565b3480156103e5575f80fd5b506001546103f9906001600160a01b031681565b6040516001600160a01b0390911681526020016101a7565b34801561041c575f80fd5b5061036b61042b366004610b30565b60066020525f90815260409020805460018201546002909201546001600160a01b03909116919060ff1683565b6101e46107be565b34801561046b575f80fd5b5061021161047a366004610c24565b610875565b34801561048a575f80fd5b50610211610499366004610caa565b610894565b3480156104a9575f80fd5b506104b26108e1565b6040516101a79190610d8e565b3480156104ca575f80fd5b506101e46104d9366004610da0565b61096d565b3480156104e9575f80fd5b506101e46104f8366004610c24565b6109bd565b348015610508575f80fd5b505f54610211565b34801561051b575f80fd5b50600554610211565b34801561052f575f80fd5b5061021161053e366004610b30565b6001600160a01b03165f9081526004602052604090205490565b348015610563575f80fd5b506101e4610572366004610da0565b610a79565b348015610582575f80fd5b506101e4610591366004610c24565b600580546001810182555f919091527f036b6384b5eca791c62761152d0c79bb0604c104a5fb6f4eb0703f3154bb3db00155565b60015f808282546105d69190610ddc565b9091555050565b5f600380546105eb90610def565b80601f016020809104026020016040519081016040528092919081815260200182805461061790610def565b80156106625780601f1061063957610100808354040283529160200191610662565b820191905f5260205f20905b81548152906001019060200180831161064557829003601f168201915b5050505050905081600390816106789190610e75565b507f5b4717af615de779c9c12885d202645882ad93995957a99a4a1a145b3ccdbc1081836040516106aa929190610f31565b60405180910390a15050565b5f80548282556040519091839183917f32853224b52c8c1c4c85ba01615b18e43506c8be20fcbb909a81ca220b3ee71f91a35050565b5f816107305760405162461bcd60e51b815260206004820152600e60248201526d417272617920697320656d70747960901b60448201526064015b60405180910390fd5b82825f81811061074257610742610f5e565b9050602002013590505b92915050565b6005545f90821061079b5760405162461bcd60e51b8152602060048201526013602482015272496e646578206f7574206f6620626f756e647360681b6044820152606401610727565b600582815481106107ae576107ae610f5e565b905f5260205f2001549050919050565b5f341161081b5760405162461bcd60e51b815260206004820152602560248201527f4465706f73697420616d6f756e74206d75737420626520677265617465722074604482015264068616e20360dc1b6064820152608401610727565b335f9081526004602052604081208054349290610839908490610ddc565b909155505060405134815233907f543ba50a5eec5e6178218e364b1d0f396157b3c8fa278522c2cb7fd99407d4749060200160405180910390a2565b60058181548110610884575f80fd5b5f91825260209091200154905081565b5f80805b83518110156108da578381815181106108b3576108b3610f5e565b6020026020010151826108c69190610ddc565b9150806108d281610f72565b915050610898565b5092915050565b600380546108ee90610def565b80601f016020809104026020016040519081016040528092919081815260200182805461091a90610def565b80156109655780601f1061093c57610100808354040283529160200191610965565b820191905f5260205f20905b81548152906001019060200180831161094857829003601f168201915b505050505081565b6001600160a01b0382165f81815260046020908152604091829020849055815192835282018390527f8ad64a0ac7700dd8425ab0499f107cb6e2cd1581d803c5b8c1c79dcb8190b1af91016106aa565b6005548110610a045760405162461bcd60e51b8152602060048201526013602482015272496e646578206f7574206f6620626f756e647360681b6044820152606401610727565b6005545f90610a1590600190610f8a565b905060058181548110610a2a57610a2a610f5e565b905f5260205f20015460058381548110610a4657610a46610f5e565b5f918252602090912001556005805480610a6257610a62610f9d565b600190038181905f5260205f20015f905590555050565b604080516060810182526001600160a01b03848116808352602080840186815260018587018181525f85815260068552889020965187546001600160a01b031916961695909517865590519085015591516002909301805460ff191693151593909317909255915183815290917fe29d35093005f4d575e1003753426b57a7f64378ba73332eef9c6ccc2b8decd6910160405180910390a25050565b80356001600160a01b0381168114610b2b575f80fd5b919050565b5f60208284031215610b40575f80fd5b610b4982610b15565b9392505050565b634e487b7160e01b5f52604160045260245ffd5b604051601f8201601f1916810167ffffffffffffffff81118282101715610b8d57610b8d610b50565b604052919050565b5f6020808385031215610ba6575f80fd5b823567ffffffffffffffff80821115610bbd575f80fd5b818501915085601f830112610bd0575f80fd5b813581811115610be257610be2610b50565b610bf4601f8201601f19168501610b64565b91508082528684828501011115610c09575f80fd5b80848401858401375f90820190930192909252509392505050565b5f60208284031215610c34575f80fd5b5035919050565b5f8060208385031215610c4c575f80fd5b823567ffffffffffffffff80821115610c63575f80fd5b818501915085601f830112610c76575f80fd5b813581811115610c84575f80fd5b8660208260051b8501011115610c98575f80fd5b60209290920196919550909350505050565b5f6020808385031215610cbb575f80fd5b823567ffffffffffffffff80821115610cd2575f80fd5b818501915085601f830112610ce5575f80fd5b813581811115610cf757610cf7610b50565b8060051b9150610d08848301610b64565b8181529183018401918481019088841115610d21575f80fd5b938501935b83851015610d3f57843582529385019390850190610d26565b98975050505050505050565b5f81518084525f5b81811015610d6f57602081850181015186830182015201610d53565b505f602082860101526020601f19601f83011685010191505092915050565b602081525f610b496020830184610d4b565b5f8060408385031215610db1575f80fd5b610dba83610b15565b946020939093013593505050565b634e487b7160e01b5f52601160045260245ffd5b8082018082111561074c5761074c610dc8565b600181811c90821680610e0357607f821691505b602082108103610e2157634e487b7160e01b5f52602260045260245ffd5b50919050565b601f821115610e70575f81815260208120601f850160051c81016020861015610e4d5750805b601f850160051c820191505b81811015610e6c57828155600101610e59565b5050505b505050565b815167ffffffffffffffff811115610e8f57610e8f610b50565b610ea381610e9d8454610def565b84610e27565b602080601f831160018114610ed6575f8415610ebf5750858301515b5f19600386901b1c1916600185901b178555610e6c565b5f85815260208120601f198616915b82811015610f0457888601518255948401946001909101908401610ee5565b5085821015610f2157878501515f19600388901b60f8161c191681555b5050505050600190811b01905550565b604081525f610f436040830185610d4b565b8281036020840152610f558185610d4b565b95945050505050565b634e487b7160e01b5f52603260045260245ffd5b5f60018201610f8357610f83610dc8565b5060010190565b8181038181111561074c5761074c610dc8565b634e487b7160e01b5f52603160045260245ffdfea26469706673582212203bdd908e340cfe2ced40d47d5fa4475b337c74052844dd856204288eaed5e46164736f6c63430008140033","linkReferences":{}},"methodIdentifiers":{"addNumber(uint256)":"fce68023","balances(address)":"27e235e3","data()":"73d4a13a","deposit()":"d0e30db0","getBalance(address)":"f8b2cb4f","getFirstElement(uint256[])":"46b71fff","getNumber()":"f2c9ecd8","getNumberAt(uint256)":"8af79949","getNumbersLength()":"f3d4e562","getPackedDataExample()":"4be58131","getUser(address)":"6f77926b","hasBalance(address)":"22b2678a","incrementNumber()":"273ea3e3","isActive()":"22f3e2d4","message()":"e21f37ce","number()":"8381f58a","numbers(uint256)":"d39fa233","owner()":"8da5cb5b","registerUser(address,uint256)":"fa0b5e55","removeNumber(uint256)":"eea54fb6","setBalance(address,uint256)":"e30443bc","setMessage(string)":"368b8772","setNumber(uint256)":"3fb5c1cb","sumMemoryArray(uint256[])":"e16633a4","users(address)":"a87430ba"},"id":38}