{"abi":[{"type":"constructor","inputs":[],"stateMutability":"payable"},{"type":"fallback","stateMutability":"payable"},{"type":"receive","stateMutability":"payable"},{"type":"function","name":"balances","inputs":[{"name":"","type":"address","internalType":"address"}],"outputs":[{"name":"","type":"uint256","internalType":"uint256"}],"stateMutability":"view"},{"type":"function","name":"demoInternalCall","inputs":[{"name":"x","type":"uint256","internalType":"uint256"}],"outputs":[{"name":"doubled","type":"uint256","internalType":"uint256"},{"name":"tripled","type":"uint256","internalType":"uint256"}],"stateMutability":"pure"},{"type":"function","name":"deposit","inputs":[],"outputs":[],"stateMutability":"payable"},{"type":"function","name":"externalCube","inputs":[{"name":"x","type":"uint256","internalType":"uint256"}],"outputs":[{"name":"","type":"uint256","internalType":"uint256"}],"stateMutability":"pure"},{"type":"function","name":"getContractBalance","inputs":[],"outputs":[{"name":"","type":"uint256","internalType":"uint256"}],"stateMutability":"view"},{"type":"function","name":"owner","inputs":[],"outputs":[{"name":"","type":"address","internalType":"address"}],"stateMutability":"view"},{"type":"function","name":"ownerWithdraw","inputs":[{"name":"amount","type":"uint256","internalType":"uint256"}],"outputs":[],"stateMutability":"nonpayable"},{"type":"function","name":"publicSquare","inputs":[{"name":"x","type":"uint256","internalType":"uint256"}],"outputs":[{"name":"","type":"uint256","internalType":"uint256"}],"stateMutability":"pure"},{"type":"function","name":"viewBalance","inputs":[{"name":"account","type":"address","internalType":"address"}],"outputs":[{"name":"","type":"uint256","internalType":"uint256"}],"stateMutability":"view"},{"type":"function","name":"withdraw","inputs":[{"name":"amount","type":"uint256","internalType":"uint256"}],"outputs":[],"stateMutability":"nonpayable"},{"type":"event","name":"Deposit","inputs":[{"name":"from","type":"address","indexed":true,"internalType":"address"},{"name":"amount","type":"uint256","indexed":false,"internalType":"uint256"}],"anonymous":false},{"type":"event","name":"Withdraw","inputs":[{"name":"to","type":"address","indexed":true,"internalType":"address"},{"name":"amount","type":"uint256","indexed":false,"internalType":"uint256"}],"anonymous":false}],"bytecode":{"object":"0x60806040525f80546001600160a01b0319163317905534156100515760405134815233907fe1fffcc4923d04b559f4d29a8bfc6cda04eb5b0d3c460751c2402c5c5cc9109c9060200160405180910390a25b6107328061005e5f395ff3fe608060405260043610610094575f3560e01c80638da5cb5b116100585780638da5cb5b146101c0578063b4e67a68146101f6578063c1a13d1a14610215578063d0e30db014610249578063f72b748614610251576100f3565b806327e235e3146101115780632e1a7d4d1461014f57806333f707d11461017057806346d363511461018f5780636f9fb98a146101ae576100f3565b366100f357335f90815260016020526040812080543492906100b790849061067b565b909155505060405134815233907fe1fffcc4923d04b559f4d29a8bfc6cda04eb5b0d3c460751c2402c5c5cc9109c9060200160405180910390a2005b335f90815260016020526040812080543492906100b790849061067b565b34801561011c575f80fd5b5061013c61012b36600461068e565b60016020525f908152604090205481565b6040519081526020015b60405180910390f35b34801561015a575f80fd5b5061016e6101693660046106bb565b610285565b005b34801561017b575f80fd5b5061016e61018a3660046106bb565b610409565b34801561019a575f80fd5b5061013c6101a93660046106bb565b610574565b3480156101b9575f80fd5b504761013c565b3480156101cb575f80fd5b505f546101de906001600160a01b031681565b6040516001600160a01b039091168152602001610146565b348015610201575f80fd5b5061013c6102103660046106bb565b610585565b348015610220575f80fd5b5061013c61022f36600461068e565b6001600160a01b03165f9081526001602052604090205490565b61016e61059b565b34801561025c575f80fd5b5061027061026b3660046106bb565b610632565b60408051928352602083019190915201610146565b5f81116102ce5760405162461bcd60e51b81526020600482015260126024820152710416d6f756e74206d757374206265203e20360741b60448201526064015b60405180910390fd5b335f908152600160205260409020548111156103215760405162461bcd60e51b8152602060048201526012602482015271496e73756666696369656e742066756e647360701b60448201526064016102c5565b335f908152600160205260408120805483929061033f9084906106d2565b90915550506040515f90339083908381818185875af1925050503d805f8114610383576040519150601f19603f3d011682016040523d82523d5f602084013e610388565b606091505b50509050806103cf5760405162461bcd60e51b8152602060048201526013602482015272115512081d1c985b9cd9995c8819985a5b1959606a1b60448201526064016102c5565b60405182815233907f884edad9ce6fa2440d8a54cc123490eb96d2768479d49ff9c7366125a9424364906020015b60405180910390a25050565b5f546001600160a01b0316331461044e5760405162461bcd60e51b81526020600482015260096024820152682737ba1037bbb732b960b91b60448201526064016102c5565b8047101561049e5760405162461bcd60e51b815260206004820152601d60248201527f496e73756666696369656e7420636f6e74726163742062616c616e636500000060448201526064016102c5565b5f80546040516001600160a01b039091169083908381818185875af1925050503d805f81146104e8576040519150601f19603f3d011682016040523d82523d5f602084013e6104ed565b606091505b50509050806105365760405162461bcd60e51b815260206004820152601560248201527413dddb995c881dda5d1a191c985dc819985a5b1959605a1b60448201526064016102c5565b5f546040518381526001600160a01b03909116907f884edad9ce6fa2440d8a54cc123490eb96d2768479d49ff9c7366125a9424364906020016103fd565b5f61057f82806106e5565b92915050565b5f8161059181806106e5565b61057f91906106e5565b5f34116105d85760405162461bcd60e51b815260206004820152600b60248201526a139bc8115512081cd95b9d60aa1b60448201526064016102c5565b335f90815260016020526040812080543492906105f690849061067b565b909155505060405134815233907fe1fffcc4923d04b559f4d29a8bfc6cda04eb5b0d3c460751c2402c5c5cc9109c9060200160405180910390a2565b5f8061063d8361064f565b91506106488361065b565b9050915091565b5f61057f8260026106e5565b5f61057f8260036106e5565b634e487b7160e01b5f52601160045260245ffd5b8082018082111561057f5761057f610667565b5f6020828403121561069e575f80fd5b81356001600160a01b03811681146106b4575f80fd5b9392505050565b5f602082840312156106cb575f80fd5b5035919050565b8181038181111561057f5761057f610667565b808202811582820484141761057f5761057f61066756fea264697066735822122020833bb6afd7353f0ed9405479bb881498b8374d2c7615b178ecda4169649e2864736f6c63430008140033","linkReferences":{}},"methodIdentifiers":{"balances(address)":"27e235e3","demoInternalCall(uint256)":"f72b7486","deposit()":"d0e30db0","externalCube(uint256)":"b4e67a68","getContractBalance()":"6f9fb98a","owner()":"8da5cb5b","ownerWithdraw(uint256)":"33f707d1","publicSquare(uint256)":"46d36351","viewBalance(address)":"c1a13d1a","withdraw(uint256)":"2e1a7d4d"},"id":38}