{"abi":[{"type":"constructor","inputs":[],"stateMutability":"nonpayable"},{"type":"function","name":"addNumber","inputs":[{"name":"_number","type":"uint256","internalType":"uint256"}],"outputs":[],"stateMutability":"nonpayable"},{"type":"function","name":"balances","inputs":[{"name":"","type":"address","internalType":"address"}],"outputs":[{"name":"","type":"uint256","internalType":"uint256"}],"stateMutability":"view"},{"type":"function","name":"data","inputs":[],"outputs":[{"name":"","type":"bytes32","internalType":"bytes32"}],"stateMutability":"view"},{"type":"function","name":"deposit","inputs":[],"outputs":[],"stateMutability":"payable"},{"type":"function","name":"getBalance","inputs":[{"name":"_addr","type":"address","internalType":"address"}],"outputs":[{"name":"","type":"uint256","internalType":"uint256"}],"stateMutability":"view"},{"type":"function","name":"getFirstElement","inputs":[{"name":"_arr","type":"uint256[]","internalType":"uint256[]"}],"outputs":[{"name":"","type":"uint256","internalType":"uint256"}],"stateMutability":"pure"},{"type":"function","name":"getNumber","inputs":[],"outputs":[{"name":"","type":"uint256","internalType":"uint256"}],"stateMutability":"view"},{"type":"function","name":"getNumberAt","inputs":[{"name":"_index","type":"uint256","internalType":"uint256"}],"outputs":[{"name":"","type":"uint256","internalType":"uint256"}],"stateMutability":"view"},{"type":"function","name":"getNumbersLength","inputs":[],"outputs":[{"name":"","type":"uint256","internalType":"uint256"}],"stateMutability":"view"},{"type":"function","name":"getUser","inputs":[{"name":"_wallet","type":"address","internalType":"address"}],"outputs":[{"name":"wallet","type":"address","internalType":"address"},{"name":"balance","type":"uint256","internalType":"uint256"},{"name":"isRegistered","type":"bool","internalType":"bool"}],"stateMutability":"view"},{"type":"function","name":"hasBalance","inputs":[{"name":"_addr","type":"address","internalType":"address"}],"outputs":[{"name":"","type":"bool","internalType":"bool"}],"stateMutability":"view"},{"type":"function","name":"incrementNumber","inputs":[],"outputs":[],"stateMutability":"nonpayable"},{"type":"function","name":"isActive","inputs":[],"outputs":[{"name":"","type":"bool","internalType":"bool"}],"stateMutability":"view"},{"type":"function","name":"message","inputs":[],"outputs":[{"name":"","type":"string","internalType":"string"}],"stateMutability":"view"},{"type":"function","name":"number","inputs":[],"outputs":[{"name":"","type":"uint256","internalType":"uint256"}],"stateMutability":"view"},{"type":"function","name":"numbers","inputs":[{"name":"","type":"uint256","internalType":"uint256"}],"outputs":[{"name":"","type":"uint256","internalType":"uint256"}],"stateMutability":"view"},{"type":"function","name":"owner","inputs":[],"outputs":[{"name":"","type":"address","internalType":"address"}],"stateMutability":"view"},{"type":"function","name":"registerUser","inputs":[{"name":"_wallet","type":"address","internalType":"address"},{"name":"_balance","type":"uint256","internalType":"uint256"}],"outputs":[],"stateMutability":"nonpayable"},{"type":"function","name":"removeNumber","inputs":[{"name":"_index","type":"uint256","internalType":"uint256"}],"outputs":[],"stateMutability":"nonpayable"},{"type":"function","name":"setBalance","inputs":[{"name":"_addr","type":"address","internalType":"address"},{"name":"_balance","type":"uint256","internalType":"uint256"}],"outputs":[],"stateMutability":"nonpayable"},{"type":"function","name":"setMessage","inputs":[{"name":"_message","type":"string","internalType":"string"}],"outputs":[],"stateMutability":"nonpayable"},{"type":"function","name":"setNumber","inputs":[{"name":"_number","type":"uint256","internalType":"uint256"}],"outputs":[],"stateMutability":"nonpayable"},{"type":"function","name":"sumMemoryArray","inputs":[{"name":"_arr","type":"uint256[]","internalType":"uint256[]"}],"outputs":[{"name":"","type":"uint256","internalType":"uint256"}],"stateMutability":"pure"},{"type":"function","name":"users","inputs":[{"name":"","type":"address","internalType":"address"}],"outputs":[{"name":"wallet","type":"address","internalType":"address"},{"name":"balance","type":"uint256","internalType":"uint256"},{"name":"isRegistered","type":"bool","internalType":"bool"}],"stateMutability":"view"},{"type":"event","name":"MessageUpdated","inputs":[{"name":"oldMessage","type":"string","indexed":false,"internalType":"string"},{"name":"newMessage","type":"string","indexed":false,"internalType":"string"}],"anonymous":false}],"bytecode":{"object":"0x608060405234801561000f575f80fd5b506001805460ff60a01b1933166001600160a81b031990911617600160a01b1790556107b08061003e5f395ff3fe608060405260043610610147575f3560e01c8063a87430ba116100b3578063eea54fb61161006d578063eea54fb614610204578063f2c9ecd8146103c2578063f3d4e562146103c2578063f8b2cb4f146103d4578063fa0b5e55146103a4578063fce6802314610204575f80fd5b8063a87430ba14610303578063d0e30db0146101ac578063d39fa2331461034a578063e16633a414610369578063e21f37ce14610383578063e30443bc146103a4575f80fd5b806346b71fff1161010457806346b71fff1461021e5780636f77926b1461023f57806373d4a13a146102895780638381f58a1461029e5780638af79949146102b25780638da5cb5b146102cc575f80fd5b806322b2678a1461014b57806322f3e2d41461017f578063273ea3e31461019f57806327e235e3146101ae578063368b8772146101e75780633fb5c1cb14610204575b5f80fd5b348015610156575f80fd5b5061016a6101653660046104b4565b505f90565b60405190151581526020015b60405180910390f35b34801561018a575f80fd5b5060015461016a90600160a01b900460ff1681565b3480156101aa575f80fd5b505b005b3480156101b9575f80fd5b506101d96101c83660046104b4565b60046020525f908152604090205481565b604051908152602001610176565b3480156101f2575f80fd5b506101ac610201366004610519565b50565b34801561020f575f80fd5b506101ac6102013660046105a8565b348015610229575f80fd5b506101d96102383660046105bf565b5f92915050565b34801561024a575f80fd5b506102626102593660046104b4565b505f9081908190565b604080516001600160a01b0390941684526020840192909252151590820152606001610176565b348015610294575f80fd5b506101d960025481565b3480156102a9575f80fd5b506101d95f5481565b3480156102bd575f80fd5b506101d96101653660046105a8565b3480156102d7575f80fd5b506001546102eb906001600160a01b031681565b6040516001600160a01b039091168152602001610176565b34801561030e575f80fd5b5061026261031d3660046104b4565b60066020525f90815260409020805460018201546002909201546001600160a01b03909116919060ff1683565b348015610355575f80fd5b506101d96103643660046105a8565b6103ee565b348015610374575f80fd5b506101d961016536600461062e565b34801561038e575f80fd5b5061039761040d565b60405161017691906106cf565b3480156103af575f80fd5b506101ac6103be36600461071a565b5050565b3480156103cd575f80fd5b505f6101d9565b3480156103df575f80fd5b506101d96101653660046104b4565b600581815481106103fd575f80fd5b5f91825260209091200154905081565b6003805461041a90610742565b80601f016020809104026020016040519081016040528092919081815260200182805461044690610742565b80156104915780601f1061046857610100808354040283529160200191610491565b820191905f5260205f20905b81548152906001019060200180831161047457829003601f168201915b505050505081565b80356001600160a01b03811681146104af575f80fd5b919050565b5f602082840312156104c4575f80fd5b6104cd82610499565b9392505050565b634e487b7160e01b5f52604160045260245ffd5b604051601f8201601f1916810167ffffffffffffffff81118282101715610511576105116104d4565b604052919050565b5f602080838503121561052a575f80fd5b823567ffffffffffffffff80821115610541575f80fd5b818501915085601f830112610554575f80fd5b813581811115610566576105666104d4565b610578601f8201601f191685016104e8565b9150808252868482850101111561058d575f80fd5b80848401858401375f90820190930192909252509392505050565b5f602082840312156105b8575f80fd5b5035919050565b5f80602083850312156105d0575f80fd5b823567ffffffffffffffff808211156105e7575f80fd5b818501915085601f8301126105fa575f80fd5b813581811115610608575f80fd5b8660208260051b850101111561061c575f80fd5b60209290920196919550909350505050565b5f602080838503121561063f575f80fd5b823567ffffffffffffffff80821115610656575f80fd5b818501915085601f830112610669575f80fd5b81358181111561067b5761067b6104d4565b8060051b915061068c8483016104e8565b81815291830184019184810190888411156106a5575f80fd5b938501935b838510156106c3578435825293850193908501906106aa565b98975050505050505050565b5f6020808352835180828501525f5b818110156106fa578581018301518582016040015282016106de565b505f604082860101526040601f19601f8301168501019250505092915050565b5f806040838503121561072b575f80fd5b61073483610499565b946020939093013593505050565b600181811c9082168061075657607f821691505b60208210810361077457634e487b7160e01b5f52602260045260245ffd5b5091905056fea26469706673582212200e79352fceb511a9ba5593e08f4bcf969a0e5839bb831bf4346f4f56f6aa03ac64736f6c63430008140033","linkReferences":{}},"methodIdentifiers":{"addNumber(uint256)":"fce68023","balances(address)":"27e235e3","data()":"73d4a13a","deposit()":"d0e30db0","getBalance(address)":"f8b2cb4f","getFirstElement(uint256[])":"46b71fff","getNumber()":"f2c9ecd8","getNumberAt(uint256)":"8af79949","getNumbersLength()":"f3d4e562","getUser(address)":"6f77926b","hasBalance(address)":"22b2678a","incrementNumber()":"273ea3e3","isActive()":"22f3e2d4","message()":"e21f37ce","number()":"8381f58a","numbers(uint256)":"d39fa233","owner()":"8da5cb5b","registerUser(address,uint256)":"fa0b5e55","removeNumber(uint256)":"eea54fb6","setBalance(address,uint256)":"e30443bc","setMessage(string)":"368b8772","setNumber(uint256)":"3fb5c1cb","sumMemoryArray(uint256[])":"e16633a4","users(address)":"a87430ba"},"id":40}