{"abi":[{"type":"constructor","inputs":[],"stateMutability":"nonpayable"},{"type":"function","name":"addNumber","inputs":[{"name":"_number","type":"uint256","internalType":"uint256"}],"outputs":[],"stateMutability":"nonpayable"},{"type":"function","name":"balances","inputs":[{"name":"","type":"address","internalType":"address"}],"outputs":[{"name":"","type":"uint256","internalType":"uint256"}],"stateMutability":"view"},{"type":"function","name":"data","inputs":[],"outputs":[{"name":"","type":"bytes32","internalType":"bytes32"}],"stateMutability":"view"},{"type":"function","name":"deposit","inputs":[],"outputs":[],"stateMutability":"payable"},{"type":"function","name":"getBalance","inputs":[{"name":"_addr","type":"address","internalType":"address"}],"outputs":[{"name":"","type":"uint256","internalType":"uint256"}],"stateMutability":"view"},{"type":"function","name":"getFirstElement","inputs":[{"name":"_arr","type":"uint256[]","internalType":"uint256[]"}],"outputs":[{"name":"","type":"uint256","internalType":"uint256"}],"stateMutability":"pure"},{"type":"function","name":"getNumber","inputs":[],"outputs":[{"name":"","type":"uint256","internalType":"uint256"}],"stateMutability":"view"},{"type":"function","name":"getNumberAt","inputs":[{"name":"_index","type":"uint256","internalType":"uint256"}],"outputs":[{"name":"","type":"uint256","internalType":"uint256"}],"stateMutability":"view"},{"type":"function","name":"getNumbersLength","inputs":[],"outputs":[{"name":"","type":"uint256","internalType":"uint256"}],"stateMutability":"view"},{"type":"function","name":"getUser","inputs":[{"name":"_wallet","type":"address","internalType":"address"}],"outputs":[{"name":"wallet","type":"address","internalType":"address"},{"name":"balance","type":"uint256","internalType":"uint256"},{"name":"isRegistered","type":"bool","internalType":"bool"}],"stateMutability":"view"},{"type":"function","name":"hasBalance","inputs":[{"name":"_addr","type":"address","internalType":"address"}],"outputs":[{"name":"","type":"bool","internalType":"bool"}],"stateMutability":"view"},{"type":"function","name":"incrementNumber","inputs":[],"outputs":[],"stateMutability":"nonpayable"},{"type":"function","name":"isActive","inputs":[],"outputs":[{"name":"","type":"bool","internalType":"bool"}],"stateMutability":"view"},{"type":"function","name":"message","inputs":[],"outputs":[{"name":"","type":"string","internalType":"string"}],"stateMutability":"view"},{"type":"function","name":"number","inputs":[],"outputs":[{"name":"","type":"uint256","internalType":"uint256"}],"stateMutability":"view"},{"type":"function","name":"numbers","inputs":[{"name":"","type":"uint256","internalType":"uint256"}],"outputs":[{"name":"","type":"uint256","internalType":"uint256"}],"stateMutability":"view"},{"type":"function","name":"owner","inputs":[],"outputs":[{"name":"","type":"address","internalType":"address"}],"stateMutability":"view"},{"type":"function","name":"registerUser","inputs":[{"name":"_wallet","type":"address","internalType":"address"},{"name":"_balance","type":"uint256","internalType":"uint256"}],"outputs":[],"stateMutability":"nonpayable"},{"type":"function","name":"removeNumber","inputs":[{"name":"_index","type":"uint256","internalType":"uint256"}],"outputs":[],"stateMutability":"nonpayable"},{"type":"function","name":"setBalance","inputs":[{"name":"_addr","type":"address","internalType":"address"},{"name":"_balance","type":"uint256","internalType":"uint256"}],"outputs":[],"stateMutability":"nonpayable"},{"type":"function","name":"setMessage","inputs":[{"name":"_message","type":"string","internalType":"string"}],"outputs":[],"stateMutability":"nonpayable"},{"type":"function","name":"setNumber","inputs":[{"name":"_number","type":"uint256","internalType":"uint256"}],"outputs":[],"stateMutability":"nonpayable"},{"type":"function","name":"sumMemoryArray","inputs":[{"name":"_arr","type":"uint256[]","internalType":"uint256[]"}],"outputs":[{"name":"","type":"uint256","internalType":"uint256"}],"stateMutability":"pure"},{"type":"function","name":"users","inputs":[{"name":"","type":"address","internalType":"address"}],"outputs":[{"name":"wallet","type":"address","internalType":"address"},{"name":"balance","type":"uint256","internalType":"uint256"},{"name":"isRegistered","type":"bool","internalType":"bool"}],"stateMutability":"view"},{"type":"event","name":"BalanceUpdated","inputs":[{"name":"addr","type":"address","indexed":false,"internalType":"address"},{"name":"balance","type":"uint256","indexed":false,"internalType":"uint256"}],"anonymous":false},{"type":"event","name":"FundsDeposited","inputs":[{"name":"depositor","type":"address","indexed":true,"internalType":"address"},{"name":"amount","type":"uint256","indexed":false,"internalType":"uint256"}],"anonymous":false},{"type":"event","name":"MessageUpdated","inputs":[{"name":"oldMessage","type":"string","indexed":false,"internalType":"string"},{"name":"newMessage","type":"string","indexed":false,"internalType":"string"}],"anonymous":false},{"type":"event","name":"NumberUpdated","inputs":[{"name":"oldValue","type":"uint256","indexed":true,"internalType":"uint256"},{"name":"newValue","type":"uint256","indexed":false,"internalType":"uint256"}],"anonymous":false},{"type":"event","name":"UserRegistered","inputs":[{"name":"wallet","type":"address","indexed":true,"internalType":"address"},{"name":"balance","type":"uint256","indexed":false,"internalType":"uint256"}],"anonymous":false}],"bytecode":{"object":"0x608060405234801561000f575f80fd5b506001805460ff60a01b1933166001600160a81b031990911617600160a01b179055610ee08061003e5f395ff3fe608060405260043610610147575f3560e01c8063a87430ba116100b3578063eea54fb61161006d578063eea54fb61461041f578063f2c9ecd81461043e578063f3d4e56214610451578063f8b2cb4f14610465578063fa0b5e5514610499578063fce68023146104b8575f80fd5b8063a87430ba14610352578063d0e30db014610399578063d39fa233146103a1578063e16633a4146103c0578063e21f37ce146103df578063e30443bc14610400575f80fd5b806346b71fff1161010457806346b71fff146102435780636f77926b1461026257806373d4a13a146102d35780638381f58a146102e85780638af79949146102fc5780638da5cb5b1461031b575f80fd5b806322b2678a1461014b57806322f3e2d414610196578063273ea3e3146101b657806327e235e3146101cc578063368b8772146102055780633fb5c1cb14610224575b5f80fd5b348015610156575f80fd5b50610181610165366004610a29565b6001600160a01b03165f90815260046020526040902054151590565b60405190151581526020015b60405180910390f35b3480156101a1575f80fd5b5060015461018190600160a01b900460ff1681565b3480156101c1575f80fd5b506101ca610506565b005b3480156101d7575f80fd5b506101f76101e6366004610a29565b60046020525f908152604090205481565b60405190815260200161018d565b348015610210575f80fd5b506101ca61021f366004610a8e565b61051e565b34801561022f575f80fd5b506101ca61023e366004610b1d565b6105f7565b34801561024e575f80fd5b506101f761025d366004610b34565b610638565b34801561026d575f80fd5b506102ac61027c366004610a29565b6001600160a01b039081165f90815260066020526040902080546001820154600290920154921692909160ff1690565b604080516001600160a01b039094168452602084019290925215159082015260600161018d565b3480156102de575f80fd5b506101f760025481565b3480156102f3575f80fd5b506101f75f5481565b348015610307575f80fd5b506101f7610316366004610b1d565b61065b565b348015610326575f80fd5b5060015461033a906001600160a01b031681565b6040516001600160a01b03909116815260200161018d565b34801561035d575f80fd5b506102ac61036c366004610a29565b60066020525f90815260409020805460018201546002909201546001600160a01b03909116919060ff1683565b6101ca6106cc565b3480156103ac575f80fd5b506101f76103bb366004610b1d565b610775565b3480156103cb575f80fd5b506101f76103da366004610ba3565b610794565b3480156103ea575f80fd5b506103f36107e1565b60405161018d9190610c87565b34801561040b575f80fd5b506101ca61041a366004610c99565b61086d565b34801561042a575f80fd5b506101ca610439366004610b1d565b6108bd565b348015610449575f80fd5b505f546101f7565b34801561045c575f80fd5b506005546101f7565b348015610470575f80fd5b506101f761047f366004610a29565b6001600160a01b03165f9081526004602052604090205490565b3480156104a4575f80fd5b506101ca6104b3366004610c99565b610979565b3480156104c3575f80fd5b506101ca6104d2366004610b1d565b600580546001810182555f919091527f036b6384b5eca791c62761152d0c79bb0604c104a5fb6f4eb0703f3154bb3db00155565b60015f808282546105179190610cd5565b9091555050565b5f6003805461052c90610ce8565b80601f016020809104026020016040519081016040528092919081815260200182805461055890610ce8565b80156105a35780601f1061057a576101008083540402835291602001916105a3565b820191905f5260205f20905b81548152906001019060200180831161058657829003601f168201915b5050505050905081600390816105b99190610d6e565b507f5b4717af615de779c9c12885d202645882ad93995957a99a4a1a145b3ccdbc1081836040516105eb929190610e2a565b60405180910390a15050565b5f80549082905560405182815281907f32853224b52c8c1c4c85ba01615b18e43506c8be20fcbb909a81ca220b3ee71f906020015b60405180910390a25050565b5f82825f81811061064b5761064b610e57565b9050602002013590505b92915050565b6005545f9082106106a95760405162461bcd60e51b8152602060048201526013602482015272496e646578206f7574206f6620626f756e647360681b60448201526064015b60405180910390fd5b600582815481106106bc576106bc610e57565b905f5260205f2001549050919050565b5f341161071b5760405162461bcd60e51b815260206004820152601d60248201527f416d6f756e74206d7573742062652067726561746572207468616e203000000060448201526064016106a0565b335f9081526004602052604081208054349290610739908490610cd5565b909155505060405134815233907f543ba50a5eec5e6178218e364b1d0f396157b3c8fa278522c2cb7fd99407d4749060200160405180910390a2565b60058181548110610784575f80fd5b5f91825260209091200154905081565b5f80805b83518110156107da578381815181106107b3576107b3610e57565b6020026020010151826107c69190610cd5565b9150806107d281610e6b565b915050610798565b5092915050565b600380546107ee90610ce8565b80601f016020809104026020016040519081016040528092919081815260200182805461081a90610ce8565b80156108655780601f1061083c57610100808354040283529160200191610865565b820191905f5260205f20905b81548152906001019060200180831161084857829003601f168201915b505050505081565b6001600160a01b0382165f81815260046020908152604091829020849055815192835282018390527f8ad64a0ac7700dd8425ab0499f107cb6e2cd1581d803c5b8c1c79dcb8190b1af91016105eb565b60055481106109045760405162461bcd60e51b8152602060048201526013602482015272496e646578206f7574206f6620626f756e647360681b60448201526064016106a0565b6005545f9061091590600190610e83565b90506005828154811061092a5761092a610e57565b905f5260205f2001546005828154811061094657610946610e57565b5f91825260209091200155600580548061096257610962610e96565b600190038181905f5260205f20015f905590555050565b604080516060810182526001600160a01b03848116808352602080840186815260018587018181525f85815260068552889020965187546001600160a01b031916961695909517865590519085015591516002909301805460ff191693151593909317909255915183815290917fe29d35093005f4d575e1003753426b57a7f64378ba73332eef9c6ccc2b8decd6910161062c565b80356001600160a01b0381168114610a24575f80fd5b919050565b5f60208284031215610a39575f80fd5b610a4282610a0e565b9392505050565b634e487b7160e01b5f52604160045260245ffd5b604051601f8201601f1916810167ffffffffffffffff81118282101715610a8657610a86610a49565b604052919050565b5f6020808385031215610a9f575f80fd5b823567ffffffffffffffff80821115610ab6575f80fd5b818501915085601f830112610ac9575f80fd5b813581811115610adb57610adb610a49565b610aed601f8201601f19168501610a5d565b91508082528684828501011115610b02575f80fd5b80848401858401375f90820190930192909252509392505050565b5f60208284031215610b2d575f80fd5b5035919050565b5f8060208385031215610b45575f80fd5b823567ffffffffffffffff80821115610b5c575f80fd5b818501915085601f830112610b6f575f80fd5b813581811115610b7d575f80fd5b8660208260051b8501011115610b91575f80fd5b60209290920196919550909350505050565b5f6020808385031215610bb4575f80fd5b823567ffffffffffffffff80821115610bcb575f80fd5b818501915085601f830112610bde575f80fd5b813581811115610bf057610bf0610a49565b8060051b9150610c01848301610a5d565b8181529183018401918481019088841115610c1a575f80fd5b938501935b83851015610c3857843582529385019390850190610c1f565b98975050505050505050565b5f81518084525f5b81811015610c6857602081850181015186830182015201610c4c565b505f602082860101526020601f19601f83011685010191505092915050565b602081525f610a426020830184610c44565b5f8060408385031215610caa575f80fd5b610cb383610a0e565b946020939093013593505050565b634e487b7160e01b5f52601160045260245ffd5b8082018082111561065557610655610cc1565b600181811c90821680610cfc57607f821691505b602082108103610d1a57634e487b7160e01b5f52602260045260245ffd5b50919050565b601f821115610d69575f81815260208120601f850160051c81016020861015610d465750805b601f850160051c820191505b81811015610d6557828155600101610d52565b5050505b505050565b815167ffffffffffffffff811115610d8857610d88610a49565b610d9c81610d968454610ce8565b84610d20565b602080601f831160018114610dcf575f8415610db85750858301515b5f19600386901b1c1916600185901b178555610d65565b5f85815260208120601f198616915b82811015610dfd57888601518255948401946001909101908401610dde565b5085821015610e1a57878501515f19600388901b60f8161c191681555b5050505050600190811b01905550565b604081525f610e3c6040830185610c44565b8281036020840152610e4e8185610c44565b95945050505050565b634e487b7160e01b5f52603260045260245ffd5b5f60018201610e7c57610e7c610cc1565b5060010190565b8181038181111561065557610655610cc1565b634e487b7160e01b5f52603160045260245ffdfea264697066735822122061485024e27cf4e8b92da0fdd9688d7b17b3a3334b8744acbc0b8181f4c6575464736f6c63430008140033","linkReferences":{}},"methodIdentifiers":{"addNumber(uint256)":"fce68023","balances(address)":"27e235e3","data()":"73d4a13a","deposit()":"d0e30db0","getBalance(address)":"f8b2cb4f","getFirstElement(uint256[])":"46b71fff","getNumber()":"f2c9ecd8","getNumberAt(uint256)":"8af79949","getNumbersLength()":"f3d4e562","getUser(address)":"6f77926b","hasBalance(address)":"22b2678a","incrementNumber()":"273ea3e3","isActive()":"22f3e2d4","message()":"e21f37ce","number()":"8381f58a","numbers(uint256)":"d39fa233","owner()":"8da5cb5b","registerUser(address,uint256)":"fa0b5e55","removeNumber(uint256)":"eea54fb6","setBalance(address,uint256)":"e30443bc","setMessage(string)":"368b8772","setNumber(uint256)":"3fb5c1cb","sumMemoryArray(uint256[])":"e16633a4","users(address)":"a87430ba"},"id":37}